:020000040000fa
:080000001011040000000000d3
:020000040000fa
:102220000fe820000eff27000e01880000000000cc
:102230000c00070080982400010020000f00070018
:10224000000020000000e000020032000000020058
:102250000000000038470200000000000040da00e3
:102260000000fe00000b20000000e0000200320031
:10227000002020009001880000000600a1028800d4
:10228000800078000000eb001a003700e280400078
:1022900054a0b4009101ba00e280400054a0b40000
:1022a0009102ba00e280400054a0b4000002eb00aa
:1022b000472bde00f507b200a6018800602ce10084
:1022c00008003a000049eb000201e8000200390072
:1022d0003420ec0002f0a0008301e900f9ff3e0089
:1022e000040037006128e100010032000082eb00a9
:1022f000040007001101ba000200e000e3ff3a0009
:102300000000060004d0a300e20f49001c003900c1
:10231000810278003549ba000201e8000200390064
:102320003420ec0002f0a0008301e9000f0032002d
:102330002549ba000201e800020039003420ec000f
:1023400002f0a0008301e900080032000400e00070
:102350000600320015c9ba000201e8000200390087
:102360003420ec0002f0a0008301e9008180e80045
:1023700054a0b4000300e000e2ff3a0000000600b1
:102380009102ba00055978008301e900f7ff320095
:10239000c82ade00055978008301e900f3ff320006
:1023a0000400e000f1ff320011d9ba00eeff37005f
:1023b0002e3c040000000000ea3b04000000000086
:1023c0004e3c0400000000008621040000000000d4
:1023d000c821040000000000aa2104000000000041
:1023e000ba22040000000000dc40040000000000ed
:1023f000ae40040000000000464104000000000060
:10240000144104000000000003f0a200889fbe00f9
:102410008a9fbe008c1f7800f7000700fe00330083
:102420006450e1004f0032006420e10052003200ad
:1024300003826c0007003b000905d0000306d000b2
:10244000820f54000c065d000200390002003200c9
:1024500089017800030678008582550004003d005c
:102460000003fd008103fd008502ea008b85420028
:10247000840f720002003b0060001000e080180032
:102480006011b8000005eb007a28e1000a0039006d
:1024900006007800c75ddd00f707b2008780750091
:1024a0002d003700828171000a017800610560000b
:1024b0008180d1000080d3008502e900f9ff3b0054
:1024c000060440008784480002003b0060041400ba
:1024d000e0841c000988a300070032008a81710093
:1024e00082817100610164008904d1000884d300f5
:1024f0008b05e800170037000978a30013003a00a5
:102500000b00e000130034008b05e90008044400d0
:1025100089844c000a4474000978a3000d003a0035
:102520000b00e000070034008b05e90008044400bc
:1025300089844c0001003a000b0020000978a300b8
:10254000f7ff32000001eb000200370082817100ca
:102550000a0178006d0007000cf0a70001f0a00050
:10256000b60037006420e10002003a00838f6c005f
:10257000b60033000801be000200be00af00370005
:10258000889fbe008a9fbe008c1f78009a000700bb
:10259000a100330003866c006450e1002e0032007d
:1025a0006420e100330032006150e1002f0032006e
:1025b0006120e1003100320085855500eb07b00055
:1025c000090020000804200005003700080444002a
:1025d00089844c000a0031000603430087834b00c6
:1025e0000001530081815b00f8ff33000203be004d
:1025f0000800a0000804440089844c00f6ff39005c
:10260000c639dd0083017300010032001300200091
:102610008904d1000884d3000998a3000500320082
:102620000800a7000300a0008904d1000884d3009b
:102630008b05e8008904d1000884d3000001eb0079
:102640000281d2003100070001f0a1000cf0a700c8
:1026500001f0a000790037006420e1007b00320027
:102660000801be000200be00f7ff37006120e10054
:10267000760032006000b800f3ff37000000200051
:1026800001f82700f0ff370014002000b6003700e3
:10269000f4ff2f00b40037000001be004100070026
:1026a0000470a70003f0a10003f8a30013003a0090
:1026b0006509b10010003200090035006928e10009
:1026c0000200350001002800000005000000400065
:1026d000818048008502e900fcff3a000000060006
:1026e000f88f4200050035008100d1000080d30042
:1026f0008502e800fcff3a00000006008000eb00c5
:10270000000005006011b800b20037008100200011
:10271000618055000b003d000b00200061fe2f0082
:102720000100e1001d00340082817100610164003c
:102730008904d1000884d3000000e800faff3a00c1
:10274000710020006100640003007000020060005e
:102750000900320061044400e0844c000988a500af
:10276000050032008b05e8006808e10002003a002d
:102770008904d1000884d300f20f20000258e10040
:1027800005003d00c75ddd00f907b20089807500d6
:1027900008007800000006000bf827008b00780086
:1027a00000000500c70ade00f107b200f50fb20015
:1027b00008003200e1cf4200020032000170a000a8
:1027c00024000500810f700001003200040805009c
:1027d00044000500810f700002003a00140005005b
:1027e0008502e9000000400081c04800fcff3b007a
:1027f0000170a000240005000004be00e9ff0700ee
:102800000003be000405be000200be00e5ff070095
:10281000844f7500000006000200be006450e10015
:10282000050036006420e100020036000968a300bc
:1028300001003a000800be000160a0004f067800c9
:102840004f05be004f04be0000000600f0ff2f0041
:10285000f1ff2700f9ff3700889fbe008a9fbe0066
:102860008c1f7800e4ff0700ebff330003866c0049
:102870006450e100240032006420e10027003200af
:102880006150e100220032006120e10021003200ad
:102890008b854200eb07b1000134b800003ab80064
:1028a0000804420089844a00013ab8000030b800a8
:1028b0008880400009014a00040033000000400005
:1028c00081804800020149008b05e900c909dd004b
:1028d000830170000100320013002000c814de00e4
:1028e0004814dd004709de001200b200c808de000f
:1028f0000884700085ff070001f0a1000cf0a7001c
:1029000001f0a000cdff37006120e100cfff3200d1
:102910000801be000200be00f7ff37006150e10071
:10292000fcff3a00c9ff37006022b8000602200011
:102930000000d0008180d2000482d2008582d200c3
:102940000000a0000202520083825a0003003100fe
:102950000202420083824a000000a1000603e9004f
:10296000f3ff3a0000000600889fbe008a9fbe0069
:10297000841f7800a0ff07004f007800110033008b
:10298000f0ff2f00838f6c0006003b0004056500fc
:102990000a00a7000800370009f0a6001000200078
:1029a00008003700820f5400838f5c000300390059
:1029b0001000200001003e000000200009f0a700e8
:1029c0000000ea004f05be004f04be000000e0001a
:1029d00000000600889fbe008a9fbe000082700033
:1029e0000402710004827100260032000004be005f
:1029f0000200be006011b8006b09200095022000a3
:102a00000182cf000a0039000541b1000082cf00e9
:102a1000070039000541b1000982cf0004003900e8
:102a20000541b1000882cf00010039000541b10025
:102a300005425200120032000a003b008281710000
:102a4000610164008100d1000080d3008984d3003b
:102a50000884d3008b05e8000442e800f7ff3a0041
:102a6000070037000804440089844c000000480037
:102a7000818048008b05e9000442e900f9ff3a0033
:102a800022ff07004f05be004f04be0000000600f5
:102a9000889fbe000004be00060037000000fb0057
:102aa000890078001a000700e10f4000050032009d
:102ab0000804e80018407800e04f5000f7ff3a00a3
:102ac0000000eb004f04be0000000600881f7800e5
:102ad00081da2000eeff07000004780081da200090
:102ae000a00020000a000700080078004f047800ca
:102af000000006000000fa0068815700cfb8970078
:102b000080da2000470007000080fa00000006007d
:102b1000889fbe0001047800b800900062816000c8
:102b20008084eb003c003200810178000320b20079
:102b30001801900002003a00e00f510036003a0000
:102b40000190a0003104980080047800f90fb200d1
:102b5000e00f510002003a0028009000000c7800bd
:102b6000ea8f540006003a00010078000008b20025
:102b700003003a0088007800d0002000e4ff07003e
:102b800018009000d8009000810f50000b00320018
:102b90000000e80010049800180078000948780048
:102ba000000ce80010c0b30021dc20008048780051
:102bb000ea8f540018003a000500370088007800ba
:102bc00009407800ee030700800478001200370007
:102bd000380090000010b2000f0032001801900081
:102be000a80090004800900055070700980090004a
:102bf000810f500004003200380090000003b30041
:102c0000300498008084eb000000eb001004980072
:102c100028009000000c7800090078004f04be00e6
:102c2000000006000f04b000889fbe008a9fbe000f
:102c30008c9fbe008e1f7800c0b79f00d1af9f0051
:102c4000a2b79f000000eb00c0033700dfa8970089
:102c50008100e800d1af9f0052c2b30082cf520082
:102c600006003a000007eb0006c3b30003c2b3003e
:102c7000b1c2b3005fa8970014003700cfb197002e
:102c8000330190000204b200050032000302780014
:102c90009401780085497800030ae80007003700ae
:102ca0000501fb00cfb097000200780098ff0700f5
:102cb00000017800e10f4100a5033200bfb2970088
:102cc0008502e800b5b79f00a10337009042780065
:102cd000d7c2b30087cf52000b0032000001e800da
:102ce00087cf520005003c0083cf5200090032001c
:102cf00081cf52000e003a000800370086cf520004
:102d00000b003a00070037000e30a0000000e8007a
:102d1000eeff37000e00a000030037000e10a000e9
:102d2000010037000e20a00002007800e7ff370006
:102d3000d0af9f00e2016700010032000e00a10049
:102d4000e8016700010032000e20a1008501fb00b0
:102d50000303b100e98f51000d003e000000200088
:102d60005fa997006a00b9000003b1009200fb0060
:102d700001004000d200fb000103b100e98f5000c8
:102d8000f8ff3600c0af9f00d2af9f000c003700a5
:102d90008004eb00c9af9f00a3c2b30083cf5200f1
:102da00007003a002fb59700ca057800aab79f0020
:102db000cbaf9f005fa897000000e800d0af9f0056
:102dc0008000eb00e1af9f00e3c2b3005fa9970072
:102dd00092cf11001e003a000ee0a000e4c15100a5
:102de0000201e800d2af9f0012427800834f5200e8
:102df0000d003a00afb2970045037800a5b79f00d9
:102e0000e6af9f00820378008703e800070178009f
:102e1000100037006a00b9000003b1000200400052
:102e20008301e800020037006fa89700dfa9970030
:102e30001301fb0001fd2f0082804000e98f50004c
:102e4000f4ff3600e0af9f00030178000100370077
:102e50005fa9970032427800c4779f00c8c6b300cc
:102e6000884f520023003200d2af9f000f003c0079
:102e700035c6b300854f5200a700320004003c0065
:102e8000e04f52003703320083c5b3000f00370014
:102e900043c6b300834f5200c4003200e5c1410075
:102ea000834f5200ba003a00c000370035c7b30064
:102eb000854f52001a00320007003c00f3c6b300f1
:102ec000834f5200110032008341e800834f5200cb
:102ed000af003a000f00370053c7b300834f5200d2
:102ee000b1003200e3c14100834f5200a8003a0014
:102ef00009003700700067000100280001003a0057
:102f00000101200001077700d2ff37000e60a0000a
:102f1000a60037000e50a0000e70a000a3003700de
:102f2000afb49700c9027800a9b79f00d5b79f003a
:102f3000e08f520002003a004bd92000dbb79f001f
:102f40000000eb00e0b79f005fb09700efb0970084
:102f50007fb197008fb99700010037008500e80026
:102f60008102780061427800e04f5200fbff3a0096
:102f7000d0b79f00e1b79f00f2b79f0083bf9f00cb
:102f8000efaa9700e08f5200050032006fb3970060
:102f9000868f52000200310085037800e7b79f005a
:102fa000efb297000006eb004fac9700850f54007e
:102fb0000100360005065400680767002f003a003c
:102fc0008c01780008c2b300cfb69700100037001c
:102fd0003d0090000004b200040032001d007800a3
:102fe00008487800800ee800050037008d00780062
:102ff00000022000c6fe0700e10f4000030032007f
:10300000bfb497008904e800b9b79f008c0178002d
:103010000c06e900e08f5100edff3a001700370081
:103020003d0090000004b200090032009d017800cc
:10303000080178003240780080497800830ee8006b
:1030400002047800e04f500008003a0010003700fa
:10305000080178003200fb00020478008d0078003f
:10306000abfe0700e10f4000090032003fb09700bf
:103070000000e800b0b79f00050037005fb497007c
:10308000efb497007fb597008fbd9700cfb697003c
:10309000090078008004e900e00f5000e0ff3a00ea
:1030a000d8b79f00e9b79f00fab79f008bbf9f007a
:1030b000e00f5700a60232001100370038009000e0
:1030c0000004b20004003200180078000d487800b7
:1030d000000ce8000500370088007800000220009e
:1030e0008bfe0700e10f400003003200bfb29700e3
:1030f0008502e800b5b79f000e0678000200370091
:103100000dc2b3004fb497000c07e900e00f560062
:10311000eaff3a008e0237002fb39700460478008a
:10312000a6b79f00cfc4de00090578008a057800a5
:103130000802be000a03be004822de004828dd0067
:1031400004027000c4779f00700667000900320017
:10315000e04f520007003200e14f4200050032000c
:10316000d4779f00e8779f0021002000e1b79f00ff
:1031700003003700d8779f0012002000e2b79f00bd
:1031800053fb2f0083814700d3b79f007cff37009c
:1031900044fb2f0004824700d4b79f001500200095
:1031a000e5b79f0076ff37000e0cb3000e007800e5
:1031b000000cb2003b003a00e00f570005003d0054
:1031c0002fb097004005be004004be00a0b79f008e
:1031d0000f00370070006700120032002fb2970016
:1031e0004401be00a4b79f00e29f9f00f39f9f0091
:1031f000140090004f80de0080a79f0090a79f00e2
:103200006f9c9700ff9c97000fa597009fa59700c4
:10321000d8b79f00e9b79f00fab79f008bbf9f0008
:103220000b003700afb4970049027800a9b79f00a0
:1032300004007800cf80de00010178008201780070
:10324000d0b79f00e1b79f00f2b79f0083bf9f00f8
:103250005fb29700efb297007fb397008fbb9700e4
:10326000e00f5200e08f5a00e00f5b00e08f5b0040
:1032700032003d003e00b3006022b8006033b80069
:103280005fb49700efb497007fb597008fbd9700ac
:103290000804520089845a000a055b008b855b0094
:1032a00022003700e00f570005003d002fb29700c5
:1032b0004401be004400be00a4b79f000f003700c9
:1032c00070006700120032002fb497004803be0060
:1032d000a8b79f00e6a79f00f7a79f008004eb0018
:1032e00089af9f000005eb009aaf9f006fa0970089
:1032f000ffa097000fa997009fa99700d0b79f0044
:10330000e1b79f00f2b79f0083bf9f000b0037001b
:10331000afb0970041027800a1b79f000404780085
:10332000090020000a0020000b002000d8b79f00f1
:10333000e9b79f00fab79f008bbf9f00efac9700e3
:10334000e08f54000d003a001a002000eaaf9f0001
:103350005fb09700efb097007fb197008fb99700eb
:10336000e00f5000e08f5800e00f5900e08f590047
:10337000020032008000eb00e1af9f000e017800f8
:10338000020cb200b2af9f0005042000850f51006f
:103390003f00320003003c00e00f51000800320003
:1033a0005600370004082000bfa99700848f510001
:1033b0001b003200040c2000848f51004f003a00a3
:1033c00013c0b300c3779f0021cd20001000370049
:1033d0000200fb004300dd00008040003002be0020
:1033e0002003be005fb49700efb497007fb597004d
:1033f0008fbd97000440e10005c8e10006d0e10060
:1034000007d8e1003d0039000241e800c2779f0083
:103410004f719700f44f5100edff3a00370037002d
:1034200013c0b300c3779f000401200005002000f3
:103430006033b800120037005fb49700efb4970014
:103440007fb597008fbd97000440e10005c8e100fb
:1034500006d0e10007d8e10028003900490020002b
:103460000402d0008582d2000683d2008783d20076
:103470008904e900faff3a000040e800c0779f00a5
:103480004f709700f04f5000ebff3a001b003700e1
:1034900013c0b300c3779f00840020000500200004
:1034a0006033b800120037005fb49700efb49700a4
:1034b0007fb597008fbd97000440e10005c8e1008b
:1034c00006d0e10007d8e1000c00390039002000e7
:1034d0000402d0008582d2000683d2008783d20006
:1034e0008904e900faff3a000040e800c0779f0035
:1034f0004f709700f54f5000ebff3a004f75970063
:103500008a02fb00efad97008b8f520002003d0056
:10351000cb779f00040037006fa89700850f5000fd
:1035200001003d00e5af9f00cfa89700e08f50005d
:103530000400320063026700020032008100e900eb
:10354000c1af9f000400240004026700090032009c
:103550004fa99700efa99700830f51000300340093
:1035600003015100c2af9f00020037000002eb00d0
:10357000c4af9f004f7397008602fb008003eb00ef
:10358000a7af9f004fac9700850f54000200340096
:1035900085025400a5af9f00640267004c00320012
:1035a000e202670061036700e08f52001b003200f7
:1035b000cfb49700390290000404b2000900320031
:1035c00099037800b5c2b300e00f53000100320048
:1035d00085c2e800854b78004fb59700070de800dd
:1035e0000a003700d5022000e00f530001003a0026
:1035f0008582e900cfb097000500780044fd070000
:1036000000027800e10f420018003200bfb59700b9
:103610008b05e800bbb79f0014003700e00f530094
:10362000120032004fb09700300290000404b20044
:10363000050032009002780003c2b300834a78008c
:103640000508e80006003700cfb097000002200010
:103650002ffd070000027800e10f42000300320056
:10366000bfb097008100e800b1b79f002fa9970075
:10367000e00f51001101320008c3b3008206780048
:103680004fb697003c0090000004b20004003200e6
:103690001c00780008487800000ee800050037009c
:1036a0008c0078000003200019fd0700e10f4000a6
:1036b00003003200bfb197008301e800b3b79f0059
:1036c0008d06e900efff3a00adaf9f00fb00370029
:1036d0002faa9700e00f520017003200680267001f
:1036e00015003a0008c2b300afae97004fb697007e
:1036f0003c0090000004b200040032001c0078007e
:1037000008487800000ee800050037008c007800bb
:1037100000022000fefc0700e10f40000300320021
:10372000bfb297008502e800b5b79f008d06e9009b
:10373000efff3a00adaf9f00e20267006103670050
:10374000e08f52001c003200cfb397003702900088
:103750000404b2000a0032000704780098037800dd
:10376000b5c2b300e00f53000100320085c2e8008b
:10377000854b7800cfb49700870ce8000a0037002b
:10378000d5022000e00f530001003a008582e900d5
:10379000cfb0970005007800ddfc0700000278003c
:1037a000e10f4200c50032003fb597000a05e8006e
:1037b000bab79f00c1003700e00f5300bf003200ce
:1037c000cfb597003b0290000404b2000500320020
:1037d0009b02780003c2b300834a7800850de8009d
:1037e00006003700cfb0970000022000c8fc070099
:1037f00000027800e10f4200b00032003fb09700b5
:103800000000e800b0b79f00ac0037000e07e900e9
:1038100000042000bfa89700808f50008200320073
:1038200003003c00e08f5000080032008e0037009b
:10383000000820003fa99700800f5100650032006a
:10384000000c2000800f510087003a004370dd001b
:10385000cfa99700e08f51002a003d0024cd200021
:10386000000042003004be002005be00e8af9f000b
:10387000f9af9f008ab79f009bb79f000802be0068
:103880000a03be005fb09700efb097007fb19700ca
:103890008fb997008e010700c0779f000004fb00de
:1038a000cfc4de00090578008a0578006faa97006a
:1038b000ffaa97000fb397009fb397000800be00c0
:1038c0000a01be00ee0107000203be000002be00b6
:1038d0005fb09700efb097007fb197008fb9970066
:1038e0000400500085805800060159008781590066
:1038f000d0b79f00e1b79f00f2b79f0083bf9f0042
:1039000030003700df989700e08f50001f00320032
:103910005fb69700efb6970022cd2000000041006f
:103920003004be002005be000801be000c00be0031
:10393000fdfb0700c0779f000000fb00cf80de008a
:103940000801be00ce0007000002560081825e0022
:10395000a4a79f00b5a79f008002eb00c5a79f000a
:103960000003eb00d6a79f002fa49700bfa49700e9
:103970004fa59700dfa59700d8b79f00e9b79f0034
:10398000fab79f008bbf9f000e00370029cd2000a3
:10399000690178005fb59700811f78001100090068
:1039a0000285d800cf007800a2002000811f780097
:1039b000110009000280d80001007800cf007800d3
:1039c000c0779f00cf7597000b43b000cb779f0067
:1039d0002500370024d720004f989700e00f5000b3
:1039e00001003a0034d820004270dd005fb4970037
:1039f000efb497007fb597008fbd970080027800e5
:103a00008502e900050033008b05d1000a85d3004b
:103a10008984d3000884d300f9ff37006f00640065
:103a2000644078000f0037006370b9005fb49700fe
:103a3000efb497007fb597008fbd97000002780024
:103a40000402e900050033008b05d1000a85d3008c
:103a50008984d3000884d300f9ff370067406400ed
:103a60000043b000c0779f00cfb2970035009000b0
:103a70000004b20007003200150178004f70970073
:103a800000497800820ae800e04f500007003a0041
:103a9000120037004f7397000600fb00cfb097006d
:103aa0001bfc0700e10f40000c003200bfb3970081
:103ab0008703e800b7b79f0008003700700467006d
:103ac000d89f9f008e0478000902b200c99f9f0012
:103ad0000e057800caaf9f006faf9700e00f570048
:103ae0004aff3a004faf97006801670018003200a4
:103af000afad9700e08f55001500340008c2b30049
:103b00008b0678003fb797004fb697003c009000b7
:103b10000004b200040032001c007800084878005d
:103b2000000ee800050037008c007800000220003d
:103b3000f7fb0700e10f4000010032000e07e8002c
:103b40008d06e900f1ff3a000e007800b0b79f0043
:103b5000dfa8970091427800c5779f00e0cf520020
:103b60003afc3a003fb097004f0778004f06be007e
:103b70004f05be004f04be000f04b1000000060058
:103b80000200fa00889fbe00a0ff9f000104780099
:103b900038009000800078000104b20033003a0041
:103ba000e200600005003a000003b3003004980012
:103bb000110498000080eb002e003700d80490001c
:103bc000e08f540006003a0012002000e680570003
:103bd000480090005a03070019049800230037009a
:103be000a8009000e08f500008003a0051dc20004f
:103bf00021049800010c7800210020005104980055
:103c0000110498000030a0003004980018019000c2
:103c1000a800900048009000490307002800900089
:103c20008080eb0011049800aff8970001487800fd
:103c3000000ce8002ff89700ea4f50000b003a0004
:103c4000380090000010b200080032001801900007
:103c5000a800900048009000390307000000eb0026
:103c600010049800a8009000010c7800aff89700ad
:103c70000100fb004f04be000080fa0000000600b7
:103c8000020ab900001bb9000200b800810042001e
:103c90008100430000000600889fbe008a9fbe008e
:103ca0003004be002005be000404440085844c009e
:103cb00006054d0087854d000898be000a90be009d
:103cc0000440e10005c8e10006d0e10007d8e100aa
:103cd00002003100680040001008e8004f05be00f7
:103ce0004f04be0000000600889fbe008a9fbe00f1
:103cf0008c1f7800000678003c04be002c05be0036
:103d00000400540085805c0006015d0087815d0031
:103d1000009ebe00029ebe00100020000440e10094
:103d200005c8e10006d0e10007d8e1000100390034
:103d30000000eb001c0e10004f0678004f05be007f
:103d40004f04be00000006001200fa00889fbe006b
:103d50008a9fbe008c9fbe000205be000004be000c
:103d6000e4b79f00f5b79f0086bf9f0097bf9f00f5
:103d70000000eb00d0b79f00c0b79f00b0b79f0016
:103d8000a0b79f0090b79f0000067800fd032000b9
:103d9000dfb197004fb0970003814100bfb097009b
:103da000e08f510004003d00290007007e8057008d
:103db000b9ff070003003700250007007e80570089
:103dc000c9ff0700dfb09700e08f50000700350003
:103dd00014002000050020006033b80008047200c1
:103de000898472000a0573008b8573000c06e80055
:103df0008d0f5600e6ff3400e08f500006003d00b6
:103e00006fb29700ffb297000fbb97009fbb970060
:103e10007e805700a0ff07005fa89700e00f5000ca
:103e200004003a001fb49700afb497003fb5970065
:103e3000cfb597000800be000a01be004f06be00c5
:103e40004f05be004f04be000080fa0000000600cf
:103e5000cf01de0002817100b2b79f004f09de0082
:103e60000000400000007100a0b79f000fb0970055
:103e70004f01de00818040008100710091b79f00fa
:103e80007faa9700cf20de00000040000080700075
:103e900080b79f000800be000a01be004f18de0078
:103ea0000402420000027200f4af9f0008044400c4
:103eb00089844c000a054d008b854d004fb2970058
:103ec000dfb297006fb39700ffb3970000000600c2
:103ed000881f780018002000881f78009aff0700cc
:103ee0008f87e9004f04780000000600801feb0078
:103ef00095ff07008f87e90000000600889fbe003d
:103f00008a9fbe008c1f7800e00f5000e08f5800a1
:103f1000e00f5900e08f59000f003d006044b800e9
:103f20006055b8000000540081805c0002015d0013
:103f300083815d001c0020000820e10009a8e10049
:103f40000ab0e1000bb8e1000d003d0019000700c8
:103f50000006eb000a0037000006eb00e00f5200fd
:103f6000e08f5a00e00f5b00e08f5b0004003d0033
:103f70006044b8006055b8000e0007001c00200027
:103f8000d3ff0700e00f5600060032006022b800a1
:103f90006033b8000000520081805a0002015b00cb
:103fa00083815b004f0678004f05be004f04be00c2
:103fb000000006000402540085825c0006035d00d8
:103fc00087835d0000000600889fbe008a9fbe00b8
:103fd0008c1f7800e00f5000e08f5800e00f590070
:103fe000e08f59000d003d006044b8006055b800f6
:103ff0000000540081805c0002015d0083815d004f
:104000001c0020000820e10009a8e1000ab0e1003e
:104010000bb8e1000d003d00080037000006eb0082
:10402000e00f5200e08f5a00e00f5b00e08f5b0072
:1040300006003d006044b8006055b800040254001a
:1040400085825c0006035d0087835d00a7ff070093
:10405000e00f5600060032006022b8006033b8005e
:104060000000520081805a0002015b0083815b00e6
:104070004f0678004f05be004f04be00000006004a
:10408000889fbe008a9fbe008c1f78000006eb0050
:10409000e00f5000e08f5800e00f5900e08f59000a
:1040a00007003d006044b8006055b80000005400af
:1040b00081805c0002015d0083815d001c002000a6
:1040c000e00f5200e08f5a00e00f5b00e08f5b00d2
:1040d00007003d006044b8006055b8000402540079
:1040e00085825c0006035d0087835d000c00a200f2
:1040f0000c000700e00f5600060032006022b800f6
:104100006033b8000000520081805a0002015b0059
:1041100083815b004f0678004f05be004f04be0050
:1041200000000600889fbe008a9fbe008c9fbe00d4
:104130000404b8000506b8008904460060854e00f6
:104140000606b8000a054600e0854e000706b800de
:104150008b054600040eb800890446000a854e000f
:10416000e0854d00050eb8000a0546008b854e001f
:10417000060eb8008b0546000416b8000a05460076
:104180008b854e000516b8008b054600041eb8004e
:104190008b0546000800be000a01be004f06be00a7
:0c41a0004f05be004f04be0000000600ea
:020000040000fa
:020000040002f8
:04aff400031c00003a
:020000040000fa
:020000040002f8
:04aff8000f890000bd
:020000040000fa
:020000040002f8
:04affc007f3e000094
:020000040000fa
:1020000010110400000000008e4a040000000000cf
:102010008e4a0400000000008e4a04000000000008
:102020008e4a0400000000008e4a040000000000f8
:102030008e4a0400000000008e4a040000000000e8
:102040008e4a0400000000005a370400000000001f
:102050008e4a0400000000008e4a040000000000c8
:102060008037040000000000a637040000000000d4
:102070008e4a0400000000008e4a040000000000a8
:1020800096230400000000007023040000000000fc
:102090008e4a0400000000008e4a04000000000088
:1020a0008e4a0400000000008e4a04000000000078
:1020b0008e4a0400000000008e4a04000000000068
:1020c0008e4a0400000000008e4a04000000000058
:1020d0008e4a0400000000008e4a04000000000048
:1020e000cc37040000000000f237040000000000bc
:1020f0008e4a040000000000e223040000000000fb
:10210000bc230400000000008e4a04000000000010
:102110008e4a0400000000008e4a04000000000007
:102120008e4a0400000000008e4a040000000000f7
:102130008e4a0400000000008e4a040000000000e7
:102140008e4a0400000000008e4a040000000000d7
:102150008e4a0400000000008e4a040000000000c7
:102160008e4a0400000000008e4a040000000000b7
:102170008e4a0400000000008e4a040000000000a7
:102180008e4a0400000000008e4a04000000000097
:102190008e4a0400000000008e4a04000000000087
:1021a0008e4a0400000000008e4a04000000000077
:1021b0008e4a0400000000002e24040000000000ed
:1021c00008240400000000008e4a04000000000003
:1021d0008e4a0400000000008e4a04000000000047
:1021e0008e4a0400000000007a2404000000000071
:1021f00054240400000000008e4a04000000000087
:102200008e4a0400000000008e4a04000000000016
:102210008e4a0400000000008e4a04000000000006
:020000040000fa
:1000080004100000081000000c1000001010000080
:10001800141000000c1100000c1100000c1100005d
:10002800181000001c100000201000002410000010
:100038000c110000281000002c10000030100000e7
:1000480034100000381000003c1000004010000080
:1000580044100000481000000c1100000c110000b2
:100068004c10000050100000541000005810000000
:100078005c1000000c11000060100000641000000b
:100088000c110000681000006c10000070100000d7
:1000980074100000781000007c1000008010000030
:1000a80084100000881000000c1100000c110000e2
:1000b8000c1100008c10000090100000941000003b
:1000c800981000009c100000a0100000a410000070
:1000d800a8100000ac1000000c1100000c1100006a
:1000e8000c110000b0100000b41000000c1100004a
:1000f8000c110000b8100000bc1000000c1100002a
:100108000c1100000c1100000c1100000c11000073
:100118000c1100000c110000c01000000c110000b0
:100128000c110000c4100000c8100000cc10000022
:100138000c1100000c1100000c1100000c11000043
:10014800d01000000c1100000c1100000c11000070
:100158000c110000d41000000c1100000c1100005c
:100168000c110000d8100000dc100000e0100000a6
:10017800e4100000e8100000ec100000f01000008f
:10018800f4100000f8100000fc100000001100003e
:1001980004110000081100000c1100000c110000ef
:1001a8000c1100000c1100000c1100000c110000d3
:1001b8000c1100000c1100000c1100000c110000c3
:1001c8000c1100000c1100000c1100000c110000b3
:1001d8000c1100000c1100000c1100000c110000a3
:1001e8000c1100000c1100000c1100000c11000093
:0801f8000c1100000c110000c5
:020000040000fa
:1041ac0012010000000200000000000000400000ae
:1041bc006666000003000000000000000102000021
:1041cc0000010000090200001200000001010000c3
:1041dc0000a00000320900000400000000000000f4
:1041ec00ff000000ff0000000403000009040000b1
:1041fc001a0300004f0000006c0000006900000072
:10420c006e00000020000000430000006f00000062
:10421c006c0000006c0000006500000067000000ee
:10422c006500000044030000450000006c00000025
:10423c006500000063000000610000006e000000db
:10424c0069000000730000006d00000073000000a6
:10425c00200000004d000000690000006e0000000e
:10426c006900000070000000720000006f00000088
:10427c006a0000006500000063000000740000008c
:10428c00200000003200000020000000460000006a
:10429c0069000000720000006d0000007700000053
:1042ac00610000007200000065000000486500001d
:1042bc006c6c00006f200000576f0000726c0000e7
:1042cc006421000000500000414e00005f560000c9
:1042dc00414c0000203d000020250000752c000002
:1042ec0020540000494c0000545f0000564100006f
:1042fc004c2000003d200000257500000a00000045
:020000040000fa
:10430c000400fa00000f780021479800000000001c
:10431c001e00780010009000900078000020200013
:10432c0000806000e00f5000f9ff3a001e0078009a
:10433c00a00090002e4090000080fb0080087800c8
:10434c000080fa00000006000200fa00000f78005e
:10435c00000000001e007800100090001000780093
:10436c0061006000e00f5000faff32001e00780080
:10437c003000900010007800004078000080fa00b7
:10438c00000006000400fa00000f78002147980096
:10439c00000000001e007800d01090001e00780075
:1043ac0020109000808f5000faff32001e00780021
:1043bc00901090001e00780040109000008040008b
:1043cc00ae409000014878001e007800401090002c
:1043dc008000e8001e00780020109000000178009a
:1043ec00110009008280d8008000fd008000780058
:1043fc001e007800411098001e00780050109000ac
:10440c008000e8001e007800511098001e00780013
:10441c00d01090001e00780030189000808f500053
:10442c00080039001e007800100090009e007800f3
:10443c009100900011017800014020008100710072
:10444c00010878000080fa00000006000400fa0061
:10445c00100798001e009000d00090001e009000e5
:10446c0050009000100178001e00900060489000f1
:10447c000080fb00130020000018dd000080ea0023
:10448c0000006100800878001e0090005010900021
:10449c00e00f500026003a001e0090001000900023
:1044ac009e0090009100900011017800f1bf2f0048
:1044bc0081006100010878001e0037001e0090008a
:1044cc00901090001e009000301090000080400072
:1044dc00104f78001e009000301090008000e80013
:1044ec001e009000201090000001780011000900bf
:1044fc008280d8008000fd00800078001e009000b3
:10450c00311098001e009000501090008000e900bf
:10451c001e009000511098001e009000200090008a
:10452c001e4178008280fb000108780001003700f2
:10453c00000000001e009000100090009000780019
:10454c000020200000806000e00f500004003a00c2
:10455c001e00900050109000e00f5000d7ff3a0062
:10456c000080fa00000006000400fa001007980012
:10457c00000000001e00900020189000e00f50007a
:10458c00fcff32001e009000e01090001e00900016
:10459c000018900000804000104f78001e00900022
:1045ac00001890008000e8001e0090007010900031
:1045bc0000017800110009008280d8008000fd0005
:1045cc00800078001e009000011898001e009000da
:1045dc00201890008000e9001e009000211898001f
:1045ec001e4078000080fa00000006000200fa006d
:1045fc00000f78001e007800d00090001e0078009c
:10460c0050009000100178001e0078007048900057
:10461c000080fb00130020000018dd000080ea0081
:10462c0000006100800878001b0037001e00780035
:10463c00e01090001e007800101890008080400060
:10464c001e007800300090001000780000407800c8
:10465c00804878001e007800101890008000e80058
:10466c001e00780070109000000178001100090005
:10467c008280d8008000fd00800078001e00780049
:10468c00111898001e007800201890008000e80097
:10469c001e007800211898001e0078001000900071
:1046ac00100078006100600000407800e04f50007e
:1046bc00060032001e007800a01890001e00780042
:1046cc0070109000808f5000d8ff3a000080fa00e4
:1046dc00000006003600f800809fbe00829fbe00de
:1046ec00849fbe00869fbe003200f8000020200090
:1046fc00900188000000fa00809b200053ff070007
:10470c000080fa003200f9004f03be004f02be00d9
:10471c004f01be004f00be003600f90000400600fd
:10472c003600f800809fbe00829fbe00849fbe00b2
:10473c00869fbe003200f800002020009001880007
:10474c000000fa00809b2000a8ff07000080fa0000
:10475c003200f9004f03be004f02be004f01be00f5
:10476c004f00be003600f900004006003600f8008d
:10477c00809fbe00829fbe00849fbe00869fbe00ad
:10478c003200f80000202000900188000000fa00a0
:10479c00409f20002dff07000080fa003200f90036
:1047ac004f03be004f02be004f01be004f00be00c3
:1047bc003600f900004006003600f800809fbe006d
:1047cc00829fbe00849fbe00869fbe003200f80010
:1047dc0000202000900188000000fa00409f20007b
:1047ec0082ff07000080fa003200f9004f03be0080
:1047fc004f02be004f01be004f00be003600f90054
:10480c00004006003600f800809fbe00829fbe006c
:10481c00849fbe00869fbe003200f800002020005e
:10482c00900188000000fa0000a3200007ff070099
:10483c000080fa003200f9004f03be004f02be00a8
:10484c004f01be004f00be003600f90000400600cc
:10485c003600f800809fbe00829fbe00849fbe0081
:10486c00869fbe003200f8000020200090018800d6
:10487c000000fa0000a320005cff07000080fa0093
:10488c003200f9004f03be004f02be004f01be00c4
:10489c004f00be003600f900004006003600f8005c
:1048ac00809fbe00829fbe00849fbe00869fbe007c
:1048bc003200f80000202000900188000000fa006f
:1048cc00c0a62000e1fe07000080fa003200f900cb
:1048dc004f03be004f02be004f01be004f00be0092
:1048ec003600f900004006003600f800809fbe003c
:1048fc00829fbe00849fbe00869fbe003200f800df
:10490c0000202000900188000000fa00c0a62000c2
:10491c0036ff07000080fa003200f9004f03be009a
:10492c004f02be004f01be004f00be003600f90022
:10493c00004006000800fa001007980021079800b4
:10494c00320798001e009000e00f5000290035003f
:10495c00e10f500003003400e20f5000130032004e
:10496c00250037000000eb00000f78000a0037002c
:10497c002e00900010407800ae0090008100e800fe
:10498c002107980042558000804078000200780092
:10499c004d0407001e0fe8009e0078003e009000ba
:1049ac00808f5000f2ff3900130037000000eb003d
:1049bc00000f78000a0037002e009000104078009d
:1049cc00ae0090008100e80021079800525580004d
:1049dc0080407800020078003b0407001e0fe800be
:1049ec009e0078003e009000808f5000f2ff39004e
:1049fc0001003700000000003e0090000080fa002b
:104a0c00000006000000fa00af0b0700406d20000c
:104a1c00801f78005701200086c0b3008082eb0015
:104a2c0064c0b3008001eb00022f2000212f200076
:104a3c00c0aa2000ba0c07008f87e900a06d2000e7
:104a4c00801f7800a70120000043eb008082eb0060
:104a5c0074c0b3008001eb00022f2000212f200036
:104a6c0020ac2000ae0c07008f87e900400020002e
:104a7c00801f780030002000801f780080c0b300b9
:104a8c00801f78000040eb00801f7800406a2000f7
:104a9c00801f7800406a2000801f7800b0c0b300ef
:104aac00801f7800c0c0b300801f78004709200029
:104abc00460820008522200064222000432220008a
:104acc002222200001222000809b20006b00070086
:104adc00f087570060002000801f780050002000f5
:104aec00801f780080c0b300801f78000040eb006e
:104afc00801f7800606a2000801f7800606a2000a8
:104b0c00801f7800e0c0b300801f7800f0c0b300b5
:104b1c00801f78006709200066082000852320008c
:104b2c0064232000432320002223200001232000a3
:104b3c00409f200051000700f0875700d001200053
:104b4c00801f7800c0012000801f780080c0b30057
:104b5c00801f780080c0b300801f7800a06a2000fe
:104b6c00801f7800206a2000801f780020c0b300ce
:104b7c00801f780030c0b300801f7800e709200048
:104b8c00e608200085252000642520004325200010
:104b9c00222520000125200000a32000370007005b
:104bac00f0875700f0012000801f7800e001200002
:104bbc00801f780080c0b300801f78000040eb009d
:104bcc00801f7800606b2000801f7800606b2000d5
:104bdc00801f780080c0b300801f780090c0b300a5
:104bec00801f7800e7092000e6082000852b2000b4
:104bfc00642b2000432b2000222b2000012b2000b3
:104c0c00c0a620001d000700f08757000000eb0035
:104c1c00801f78000000eb00801f78000000eb0084
:104c2c00801f78000000eb00801f78000000eb0074
:104c3c00801f780010002000801f7800e5c4b300ae
:104c4c0006002000676924000002eb008001eb00e5
:104c5c0022ac2000c1aa2000809b2000720007001b
:104c6c00ec875700809b200040558800809b2000db
:104c7c00505588000080fa00000006001000fa0071
:104c8c00000f78001107980022079800330798004e
:104c9c004407980055079800660798007707980016
:104cac001e0078009e009000010878001e0078001d
:104cbc00ae009000110098001e007800be0090001d
:104ccc00210098001e007800ce0090003100980062
:104cdc001e007800de009000410098001e00780055
:104cec00ee009000510098001e007800fe0090002d
:104cfc00610098001e0078008ef8970061489800bb
:104d0c001e007800eef09700714898001e007800a5
:104d1c00aeb89700010898001e0078009eb8970066
:104d2c00110898001e0078008ef0970041509800f2
:104d3c001e007800eee89700515098001e00780095
:104d4c00eeb09700310898001e007800deb0970096
:104d5c00410898001e0078008000eb005108980074
:104d6c001e0078008000eb00610898001e0078009f
:104d7c008000eb00710898001e0078008000eb00aa
:104d8c00011098001e0078008000eb0011109800b4
:104d9c001e0078008000eb00211098001e007800a7
:104dac008000eb00311098001e0078008000eb00b2
:104dbc00411098001e0078008000eb005110980004
:104dcc001e0078008000eb00611098001e00780037
:104ddc008000eb00711098001e0078008000eb0042
:104dec00011898001e0078008000eb001118980044
:104dfc001e0078008000eb00211898001e0078003f
:104e0c0011002000311898001e0078008000eb0083
:104e1c00411898001e0078008000eb005118980093
:104e2c000080fa00000006001000fa00881f7800cd
:104e3c00000f78001107980022079800330798009c
:104e4c00440798005607980067079800654f98002c
:104e5c001e007800100078008000eb00010878003c
:104e6c001e00900060009000e10f40000e02320026
:104e7c002e00900060009000e10f40000c02320008
:104e8c001e00900000089000e00f500069003a00ee
:104e9c002e00900000089000e00f500065003a00d2
:104eac001e009000f10b07001e0090004c0c070038
:104ebc002e009000c60b07001e0078009e0090008c
:104ecc00510898001e0090009e0078000108980080
:104edc001e0090008000eb00110898001e0090004e
:104eec008000eb00210898001e007800ae009000b6
:104efc00610898002e0090009e0078000108980030
:104f0c002e0090008000eb00110898002e009000fd
:104f1c008000eb0021089800113a8000f00b200073
:104f2c0000816000600420007105200023742000c3
:104f3c008049780081497800824978001e009000f1
:104f4c00f00090001e00900070009000100178009e
:104f5c001e009000204890000080fb00f30320000e
:104f6c000018dd000080ea00000061008008780075
:104f7c001e009000f00090001e0090007000900049
:104f8c00100178001e007800b00990001e009000ff
:104f9c00204890000080fb000018dd00000071002c
:104fac00800878001e007800800890001e007800b1
:104fbc0000089000100178001e007800405090000e
:104fcc000080fb00f30320000018dd000080ea00e5
:104fdc0000006100800878001e00780080089000b6
:104fec001e00780000089000100178002e00900040
:104ffc00e00190001e007800405090000080fb0003
:10500c000018dd000000710080087800113a800063
:10501c000004200000817000600420007105200055
:10502c0023742000804978008149780082497800f7
:10503c000a0037001e007800d00890001e00900077
:10504c00808f50009c013a001e007800e008900010
:10505c002e009000808f500099013a003e00900085
:10506c00e00f5000870032004e009000e00f50001f
:10507c00840032003e00900060009000e10f400080
:10508c00910132004e00900060009000e10f400052
:10509c008f0132003e00900000089000e00f50009d
:1050ac0069003a004e00900000089000e00f50009c
:1050bc0065003a003e0090006c0b07003e0090002b
:1050cc00c70b07004e009000410b07001e00780034
:1050dc00be009000710898003e0090009e00780081
:1050ec00010898003e0090008000eb001108980029
:1050fc003e0090008000eb00210898001e00780014
:10510c00ce009000011098004e0090009e00780098
:10511c00010898004e0090008000eb0011089800e8
:10512c004e0090008000eb0021089800113a80009e
:10513c00f00b20000081600060042000710520004d
:10514c0023742000804978008149780082497800d6
:10515c003e009000f00090003e0090007000900027
:10516c00100178003e009000204890000080fb0069
:10517c00f30320000018dd000080ea00000061004d
:10518c00800878003e009000f00090003e009000f7
:10519c0070009000100178001e007800c00990008b
:1051ac003e009000204890000080fb000018dd00bd
:1051bc0000007100800878001e00780090089000b4
:1051cc001e00780010089000100178001e00780076
:1051dc00505090000080fb00f30320000018dd000d
:1051ec000080ea0000006100800878001e00780052
:1051fc00900890001e0078001008900010017800b4
:10520c004e009000e00190001e007800505090007d
:10521c000080fb000018dd000000710080087800a1
:10522c00113a80000004200000817000600420000e
:10523c007105200023742000804978008149780092
:10524c00824978000a0037001e007800f0089000b0
:10525c003e009000808f50001f013a001e00780025
:10526c00801090004e009000808f50001c013a007e
:10527c001e00780010007800012020000108780042
:10528c00060037003e009000e00f500016013a0077
:10529c004e009000e00f500015013a0018c0b3000a
:1052ac000240220043a724005e009000ee00900014
:1052bc00f4f40700e00f500001003c000044eb0048
:1052cc00e04f5400040032000040220041a72400ab
:1052dc00500798006107980018c0b30002402200e4
:1052ec00431724005e009000ee009000e3f40700ea
:1052fc00e00f5000010035000044eb00e04f54007b
:10530c00040032000040220041172400500798008e
:10531c006107980018c0b300024022004327240004
:10532c005e009000ee009000d4f40700e00f5000f7
:10533c00010034000044eb00e04f54000f00320039
:10534c001e007800400490005e019000ee01900079
:10535c00004022004197240086f407000200200040
:10536c0003f0230026f40700c8f4070000007800bf
:10537c000000e900000c7800150037001e007800d2
:10538c00100078009e007800910078009100780061
:10539c000130a000010878001e0078004004900045
:1053ac005e019000ee0190000040220041a7240015
:1053bc0070f407000200200003f0230010f4070033
:1053cc00b2f40700000078000000e900000c78003f
:1053dc00ee48900050c4b30080cf5000040032005f
:1053ec00ee48900050c6b30080cf500008003a0041
:1053fc001e007800100078009e0078009100780064
:10540c00910078000110a000010878001800370006
:10541c00ee489000f0c4b30080cf5000040032007e
:10542c00ee489000f0c6b30080cf500008003a0060
:10543c001e007800100078009e0078009100780023
:10544c00910078000120a0000108780008003700c6
:10545c00ee489000e0c4b30080cf5000040032004e
:10546c00ee489000e0c6b30080cf5000a2003a0096
:10547c004eb89700e20f500008003a001e0078006a
:10548c00100078009e007800910078009100780060
:10549c000100a00001087800030037004eb8970007
:1054ac00e10f500096003a002eb89700e00f500024
:1054bc0004003a001e007800611822004118980080
:1054cc00360037001e007800100090009e00780017
:1054dc009100900011017800010022008100710000
:1054ec00010878001e007800aeb8970011109800e3
:1054fc001e0078009eb89700211098001e007800be
:10550c008000eb00311098001e0078008000eb004a
:10551c00411098001e0078008000eb00511098009c
:10552c001e007800beb89700311898001e00780055
:10553c00811c2200411898001e007800d0009000b9
:10554c001e00780050009000100178001e007800ba
:10555c00604890000080fb00130020000018dd0064
:10556c000080ea0000006100800878001e007800ce
:10557c00e00090001e0078006000900010017800a0
:10558c001e007800604890000080fb001300200093
:10559c000018dd0000007100800878000eb897003c
:1055ac00e00f500004003a001e007800a11a2200ff
:1055bc00511898002b0037001e0078008eb8970009
:1055cc00611098001e007800feb0970071109800d2
:1055dc001e0078008000eb00011898001e00780077
:1055ec008000eb00111898001e0078008000eb0082
:1055fc00211898001e007800a12b22005118980049
:10560c001e007800d00090001e0078005000900022
:10561c00100178001e007800704890000080fb009c
:10562c00130020000018dd000080ea00000061007b
:10563c00800878001e007800e00090001e007800c2
:10564c0060009000100178001e00780070489000f7
:10565c000080fb00130020000018dd00000071002a
:10566c00800878001e007800100078009e007800fa
:10567c009100780011017800010028008100710070
:10568c00010878001e007800100090009e00780041
:10569c009100900011017800014020008100710000
:1056ac0001087800170037000000000015003700d3
:1056bc00000000001300370000000000110037004c
:1056cc00000000000f003700000000000d00370044
:1056dc00000000000b00370000000000090037003c
:1056ec000000000007003700000000000500370034
:1056fc00000000000300370000000000010037002c
:10570c00000000004f0478000080fa000000060042
:10571c000200fa00000f78001e00780010009000c4
:10572c009e0078009100900011017800f1bf2f00cd
:10573c0081006100010878001e00780010007800dc
:10574c008000eb00010878001e007800e00090005b
:10575c001e00780060009000100178001e00780098
:10576c00604890000080fb00130020000018dd0052
:10577c000080ea0000006100800878001e007800bc
:10578c00e00090001e00780060009000100178008e
:10579c001e007800704890000080fb001300200071
:1057ac000018dd000080ea0000006100800878002d
:1057bc001e0078008000eb00411898001e00780055
:1057cc008000eb00511898001e00780050089000e3
:1057dc00e00f50002f003200113a8000f00b200037
:1057ec0000816000600420007105200023742000fb
:1057fc008049780081497800824978001e00780041
:10580c0050089000f00090001e00780050089000a6
:10581c0070009000100178001e0078005008900075
:10582c00204890000080fb00f30320000018dd00ee
:10583c000080ea000000610080087800113a8000c6
:10584c00000420000081700060042000710520001d
:10585c0023742000804978008149780082497800bf
:10586c001e007800500890008000eb0001089800a2
:10587c001e007800500890007c0907001e0078007c
:10588c0050089000d60907001e0078008000eb003d
:10589c00510898001e00780060089000e00f50003e
:1058ac0028003200113a8000f00b200000816000cb
:1058bc0060042000710520002374200080497800ca
:1058cc0081497800824978001e0078008008900099
:1058dc001e00780000089000100178001e0078006f
:1058ec00405090000080fb00f30320000018dd0006
:1058fc000000710080087800113a8000000420003c
:10590c0000817000600420007105200023742000c9
:10591c008049780081497800824978001e0078001f
:10592c00600890008000eb00010898001e007800d1
:10593c0060089000260907001e0078008000eb002c
:10594c00610898001e00780070089000e00f50006d
:10595c002f003200113a8000f00b20000081600013
:10596c006004200071052000237420008049780019
:10597c0081497800824978001e00780070089000f8
:10598c00f00090001e0078007008900070009000ed
:10599c00100178001e0078007008900020489000dc
:1059ac000080fb00f30320000018dd000080ea00fb
:1059bc000000610080087800113a8000000420008b
:1059cc000081700060042000710520002374200009
:1059dc008049780081497800824978001e0078005f
:1059ec00700890008000eb00010898001e00780001
:1059fc00700890001d0907001e00780070089000c8
:105a0c00770907001e0078008000eb0071089800f1
:105a1c001e00780000109000e00f500028003200ab
:105a2c00113a8000f00b200000816000600420001f
:105a3c00710520002374200080497800814978008a
:105a4c00824978001e007800900890001e007800b3
:105a5c0010089000100178001e0078005050900043
:105a6c000080fb00f30320000018dd000000710033
:105a7c0080087800113a800000042000008170003a
:105a8c0060042000710520002374200080497800f8
:105a9c0081497800824978001e007800001090003f
:105aac008000eb00010898001e00780000109000a8
:105abc00c70807001e0078008000eb00011098005a
:105acc000080fa00000006000400fa00000f7800c5
:105adc00214798001e00780040189000e00f5000fd
:105aec00050032001e00780040199000ae40900076
:105afc001e007800020001000080fa000000060081
:105b0c000200fa00000f78001e0078005018900078
:105b1c00e00f5000050032001e007800d0189000f5
:105b2c001e007800010001000100370000c0eb00ee
:105b3c000080fa00000006000200fa00000f780056
:105b4c001e007800100090009000780000402000ab
:105b5c0000806000e00f500008003a001e00780042
:105b6c00100090009e0078009100900011017800c8
:105b7c000140200081007100010878000080fa00cb
:105b8c00000006000400fa00000f780011079800ce
:105b9c00080037001e009000104078009e00900016
:105bac008100e80011079800804078001e00780002
:105bbc00c5ff07001e00900010407800e04f500019
:105bcc00f4ff3a001e007800dbff07000080fa00ab
:105bdc00000006000a00fa00200798003107980020
:105bec00420798004e009000e00f500087003200f2
:105bfc004e009000e10f500004003a00be009000ef
:105c0c000040eb008048780081003700b1c1b30040
:105c1c002e009000acff070071c3b3002e00900063
:105c2c00a9ff07002e009000c3ff07003e00900064
:105c3c00100798004e009000000f7800030037000a
:105c4c000000000001003700000000002e00900052
:105c5c00abff0700be009000804878003e0090002b
:105c6c0010407800ed4f50000c003a00be00900040
:105c7c000040eb0080487800a1c0b3002e009000db
:105c8c0091ff0700d1c0b3002e0090008eff0700db
:105c9c002e009000a8ff07005d0037003e0090002a
:105cac0010407800fb4f500016003a00b1c1b30011
:105cbc002e00900084ff070081c3b3002e009000db
:105ccc0081ff0700b1c1b3002e0090007eff0700da
:105cdc00b1c5b3002e0090007bff0700b1c4b30028
:105cec002e00900078ff07002e00900092ff070016
:105cfc001e009000300798004e009000000f7800b6
:105d0c00410037003e00900010407800e84f5000f2
:105d1c00050032003e00900090407800f0c7b300c0
:105d2c0080cf50001a003a00be0090001e00900078
:105d3c00808f50001000360081c0b3002e00900000
:105d4c0061ff070001c2b3002e0090005eff070048
:105d5c0081c0b3002e0090005bff07002e00900066
:105d6c0075ff07003e0090000000e9003007980026
:105d7c001e0fe8000500370071c0b3002e00900024
:105d8c0051ff07002e0090006bff07001e0037002c
:105d9c001e007800e10f500006003a0071c0b300fd
:105dac002e00900048ff07002e00900062ff0700b5
:105dbc00150037003e00900010407800ff4f500057
:105dcc009fff36003e00900090407800e0c7b30083
:105ddc0080cf50009cff3e003e00900010407800a9
:105dec00804078002e00900037ff07002e009000b6
:105dfc0051ff07003e0090000000e80030079800bb
:105e0c001e0fe90091ff370090ff370000000000e3
:105e1c000080fa00000006000400fa009424a80098
:105e2c000000eb00b0248800f00f200070248800e4
:105e3c009424a900a04a2000100798000040eb0011
:105e4c00004f7800080037009e4078000180fb006e
:105e5c00000040009e009000008040008000eb009d
:105e6c00010878001e4fe8001e407800ef4f5000ec
:105e7c00f5ff3600d00020005025880000c4b30088
:105e8c0000eeb700a0b720001070880080c8b300e7
:105e9c0001eeb700a0bb20003070880080c0b300ba
:105eac0005eeb7000000eb00302588000000eb0089
:105ebc004025880000e020004800de00c024880057
:105ecc008644a80086e4a8008804a80094a4a9002d
:105edc000040eb0013ecb7000040eb0016ecb700f1
:105eec0010c0b30014ecb70000c0eb0006ecb70018
:105efc0000c0eb0007ecb70000000000a1248000fc
:105f0c000004200000806000e00f5000fbff3a000e
:105f1c000080fa00000006000600fa005024800001
:105f2c0062006000e00f500005003200f00f20000e
:105f3c007024880020002000502488008e00370038
:105f4c005024800064006000e00f50000300320019
:105f5c004000200050248800870037005024800027
:105f6c0070006000e00f50000300320000012000c0
:105f7c00502488008000370051248000000220004b
:105f8c0000806000e00f500003003200000220008f
:105f9c00502488007800370051248000000820002d
:105fac0000806000e00f5000030032000008200069
:105fbc00502488007000370050248000610060007d
:105fcc00e00f5000340032000040eb0013ecb7003f
:105fdc0008003700800020005024880000000000da
:105fec0000000000000000000000000000000000a5
:105ffc00000000005024800068006000e00f50009a
:10600c00f4ff3a00a04a2000100798000040eb0073
:10601c00004f7800080037009e4078000180fb009c
:10602c00000040009e009000008040008000eb00cb
:10603c00010878001e4fe8001e407800ef4f50001a
:10604c00f5ff360000c4b30000eeb700a0b7200087
:10605c001070880080c8b30001eeb700a0bb200010
:10606c003070880080c0b30005eeb7000000eb0074
:10607c00b0248800f00f200050248800d0002000ad
:10608c005025880010c0b30016ecb70010c0b30048
:10609c0014ecb70038003700502480006800600012
:1060ac00e00f500034003200902480004300de00ea
:1060bc00c200dd0000e020000080400020079800b6
:1060cc002e00900010409000fbebb7002e009000cb
:1060dc0010407800faebb7002e00900010009000f2
:1060ec00e05f8800902480000040780015ecb70039
:1060fc0080002000502488000040eb0012ecb70018
:10610c00fbcbbf008080fb00c00320000080600040
:10611c0041022000810f5000080032004103200092
:10612c00810f500003003200e40f500005003200d4
:10613c00050037001200070003003700af0207000c
:10614c0001003700de02070012ccbf000080fb000c
:10615c006100600000407800e04f50000600320003
:10616c0000c4b30000eeb70040c8b30005eeb700a2
:10617c0040c8b30001eeb7000080fa000000060032
:10618c000200fa00e05f8000000f78001e0078002b
:10619c0010407800e1bf2000804878001e0fe80016
:1061ac001e00780010407800e1bf2000904098005d
:1061bc001e0fe8001e00780010407800e1bf2000a0
:1061cc00a04098001e0fe8001e00780010407800d8
:1061dc00e1bf2000b04098001e0fe8001e007800c0
:1061ec0010407800e1bf2000c04098001e0fe8006e
:1061fc001e00780010407800e1bf2000d0409800cd
:10620c001e0fe8001e00780010407800e1bf20004f
:10621c00e04098001e0fe8001e0078001040780047
:10622c00e1bf2000f04098001e0fe80000c4b3004e
:10623c0000eeb70080c0b30005eeb700e0bf200051
:10624c0010407800e04f500006003500e0bf200001
:10625c0030009000e00f50000200320080ccb30000
:10626c000100370080c8b30001eeb70094a4a90068
:10627c0000c0eb0006ecb70000c0eb0007ecb70069
:10628c00e0bf2000104078008080fb00000620005a
:10629c0000806000e00f5000040032000104200078
:1062ac00810f500003003200040037000800070083
:1062bc0005003700390a07000300370012ccbf0075
:1062cc000004a00012ecb7000080fa0000000600e9
:1062dc000600fa00e0bf2000104090000080fb0098
:1062ec00cf80de00b200200003002000820f50009f
:1062fc00838f58003c023e00006001000b00370009
:10630c00aa00370038023700a800370036023700e1
:10631c00390137005401370033023700c901370007
:10632c00d0013700f801370010023700e0bf200021
:10633c00104078000080fb007f006000e10f5000ef
:10634c0010003200e20f50002d003200e00f500020
:10635c0091003a003170800014ccbf008048780066
:10636c00307080008000e8000040eb00804878002e
:10637c0020c0b30004eeb70080ccb30005eeb7002c
:10638c008900370016ccbf000080fb00e20f5000e4
:10639c0003003200e30f50000500320017003700f5
:1063ac0012ccbf000004a00012ecb70013003700a1
:1063bc00e0bf200040409000e04f50000c003a003d
:1063cc00317080000040eb00804878003070800015
:1063dc008000e8000040eb008048780020c0b3004b
:1063ec0004eeb70080ccb30005eeb7000300370015
:1063fc0012ccbf000004a00012ecb7006a003700fa
:10640c0016ccbf000080fb00e20f500003003200ee
:10641c00e30f5000250032005b003700e0bf200086
:10642c00404090000080fb006f006000e00f5000c7
:10643c001a003a0031708000e0bf2000404090000c
:10644c00e04f500006003d0005cebf000080fb0071
:10645c00640060004280de000040780005003700d8
:10646c0001cebf000080fb00640060004280de00b3
:10647c000040780080487800307080008000e80090
:10648c000040eb008048780020c0b30004eeb70059
:10649c0080ccb30005eeb7000300370012ccbf0070
:1064ac000004a00012ecb7003a003700a04a20000c
:1064bc0010079800e0bf2000404090006f4f600034
:1064cc009e4078000180fb000000400080007800b6
:1064dc00e0bf2000404090000000fb004f00de00b9
:1064ec0000807000c200dd0000e020000080400051
:1064fc00200798009e4078000180fb0000004000bf
:10650c009e0090000080400090007800e0bf2000ca
:10651c0040409000e04f500002003d004000200041
:10652c00010037008000200000806000e00f500068
:10653c0011003200317080002e009000104090004d
:10654c000080fb00640060004280de0000407800a8
:10655c0080487800307080008000e8000040eb003c
:10656c008048780020c0b30004eeb70080ccb300a4
:10657c0005eeb7000300370012ccbf000004a000ea
:10658c0012ecb7000300370012ccbf000004a000cf
:10659c0012ecb7000400370012ccbf000004a000be
:1065ac0012ecb7009301370092013700e0bf2000d6
:1065bc00104078000080fb007f006000e00f50006e
:1065cc0003003200e20f50001c003200850037003f
:1065dc00e0bf2000204090000080fb00e10f500045
:1065ec0012003a00e0bf200010409000e14f500034
:1065fc0006003a0041c1200091407800e0cfb30082
:10660c0000c0600014ecb7000300370014ccbf00ce
:10661c000004a00014ecb7000040eb0004eeb7003f
:10662c0080ccb30005eeb7000300370012ccbf00de
:10663c000004a00012ecb7006e00370016ccbf00af
:10664c000080fb00e20f500003003200e30f50000b
:10665c00100032005f003700e0bf20004040900087
:10666c000080fb006f006000e00f500005003a0056
:10667c000040eb0004eeb70080ccb30005eeb70091
:10668c000300370012ccbf000004a00012ecb700ce
:10669c0053003700a04a200010079800e0bf2000ec
:1066ac00404090006f4f60001e407800e04f50005b
:1066bc003e0032009e4078000180fb00000040004c
:1066cc0080007800e0bf2000404090000000fb00fc
:1066dc004f00de0000807000c200dd0000e02000f2
:1066ec000080400020079800e0bf20004040900050
:1066fc00e04f500017003d009e4078000180fb00e9
:10670c00000040009e0090000080400010007800c7
:10671c0064006000e00f50000a003200e0bf20006f
:10672c0010409000e14f500002003a000040eb0096
:10673c000100370040c8b300ae00900090409800b4
:10674c001a00370012ccbf000004a00012ecb700f6
:10675c00160037009e4078000180fb0000004000ce
:10676c009e009000008040001000780068006000df
:10677c00e00f50000a003200e0bf200010409000f3
:10678c00e14f500002003a0080c8b300010037000e
:10679c0040c8b300ae009000904098000300370052
:1067ac0012ccbf000004a00012ecb70012ccbf004a
:1067bc000080fb0061006000e00f500004003a0014
:1067cc000040eb0004eeb70080ccb30005eeb70040
:1067dc000300370012ccbf000004a00012ecb7007d
:1067ec000400370012ccbf000004a00012ecb7006c
:1067fc0000013700ff003700e0bf20002040900070
:10680c00e04f500004003d0012ccbf000004a0007b
:10681c0012ecb700f7003700e0bf20001040780002
:10682c0006ecb700e0bf20001040900007ecb7006a
:10683c00e0bf20001000900040608800e0bf200006
:10684c002000900050608800e0bf200030009000d5
:10685c00606088000040eb0004eeb70080ccb30011
:10686c0005eeb700e3003700e0bf200010407800d1
:10687c0006ecb700e0bf20001040900007ecb7001a
:10688c00e0bf20001000900040608800e0bf2000b6
:10689c002000900050608800e0bf20003000900085
:1068ac0060608800e0bf2000304090000080fb005a
:1068bc00e20f500014003200e30f5000340032009d
:1068cc00e10f50005a003a00600d2a0070608800f9
:1068dc0070608000104078000080fb0080608800b1
:1068ec00e0bf2000b000900080608000808f5000de
:1068fc0003003100e0bf2000300090008060880071
:10690c00100107004e003700e0bf2000204090002f
:10691c000080fb00e00f500003003a00800e2a00bc
:10692c00706088000300370012ccbf000004a00088
:10693c0012ecb70012ccbf000080fb0061006000bd
:10694c00e00f500011003a00706080000080e800f9
:10695c001040780010ecb7007060800063004000bd
:10696c001040780011ecb700e0bf2000b0009000a0
:10697c0080608000808f500003003100e0bf200059
:10698c003000900080608800ee0007002c0037007b
:10699c00e0bf2000204090000080fb00e10f500081
:1069ac0007003200e20f500008003200e00f5000e8
:1069bc0009003a00a00f2a00706088000900370017
:1069cc00e00f2a00706088000600370080112a0052
:1069dc00706088000300370012ccbf000004a000d8
:1069ec0012ecb70012ccbf000080fb00610060000d
:1069fc00e00f50000d003a007060800010407800ed
:106a0c000080fb0080608800e0bf2000b000900098
:106a1c0080608000808f500003003100e0bf2000b8
:106a2c003000900080608800c6000700040037002a
:106a3c0012ccbf000004a00012ecb7006d003700b0
:106a4c006c0037003170800013ccbf008048780098
:106a5c0010c0b30004eeb70080ccb30005eeb70055
:106a6c0064003700e0bf200020409000e14f500050
:106a7c0021003e00a04a20001007980010c0b3006f
:106a8c00004f7800080037009e4078000180fb0022
:106a9c00000040009e009000008040008000eb0051
:106aac00010878001e4fe8001e407800ef4f5000a0
:106abc00f5ff3600e0bf20002040900013ecb7003b
:106acc0013ccbf000080fb00e00f500003003a0025
:106adc0020c0b30016ecb7000200370030c0b30082
:106aec0016ecb7000040eb0004eeb70080ccb3000e
:106afc0005eeb7003f00370012ccbf000004a00029
:106b0c0012ecb7003b00370016ccbf000080fb0036
:106b1c00e30f500011003a00e0bf2000404090000d
:106b2c00e04f500008003a00317080000040eb004c
:106b3c008048780010c0b30004eeb70080ccb300de
:106b4c0005eeb7000300370012ccbf000004a00014
:106b5c0012ecb700000000002600370012ccbf007a
:106b6c000004a00012ecb7002200370016ccbf00c6
:106b7c000080fb00e30f500017003a00e0bf20003c
:106b8c0040409000e04f50000e003a00e0bf200063
:106b9c00204090000080fb00e00f500005003a0000
:106bac000040eb0004eeb70080ccb30005eeb7005c
:106bbc000700370012ccbf000004a00012ecb70095
:106bcc000300370012ccbf000004a00012ecb70089
:106bdc00000000000700370012ccbf000004a0002a
:106bec0012ecb7000300370012ccbf000004a00069
:106bfc0012ecb7000080fa00000006000000fa005a
:106c0c0015ccbf008080fb00000f200000806000ce
:106c1c00e00f500028003a0006ccbf008080fb003b
:106c2c00000620000080600001022000810f50004f
:106c3c001d00320001042000810f500018003200aa
:106c4c00e00f50001b003a0007ccbf000080fb0097
:106c5c00e50f500003003200e60f50000d0032002b
:106c6c001200370008ccbf000080fb00b024880065
:106c7c00b0248000e00f500003003a0010c0b300b5
:106c8c0016ecb7000200370020c0b30016ecb700ba
:106c9c00020037002b000700000000000300370043
:106cac00640807000100370000000000000000002d
:106cbc0001003700000000000080fa000000060010
:106ccc000000fa0015ccbf008080fb00000f2000f4
:106cdc0000806000e00f500018003a0006ccbf00a6
:106cec008080fb0000062000008060000102200074
:106cfc00810f50000500320001042000810f50006c
:106d0c0004003a005108070003003700000000009f
:106d1c00010037000000000000c4b30000eeb70013
:106d2c0080c8b30001eeb7000040eb0004eeb700e2
:106d3c0080ccb30005eeb700000000000080fa0024
:106d4c00000006000200fa0081608000f0032000c1
:106d5c00808f500009003e0080608000004f78005a
:106d6c000000eb008060880000c0eb0006ecb70070
:106d7c0000c0eb0007ecb7000500370000c4b300ff
:106d8c00004f7800806080000004b10080608800b3
:106d9c000040eb00104798000c0037003170800069
:106dac001e4090000080fb0000814000716080005c
:106dbc0011407800004978000100e80070608800fc
:106dcc001e4090000040e800104798001e409000c4
:106ddc009e4f5000f1ff39001e40780004eeb700c2
:106dec0005cebf0000c0ea0002c4b30082406000c0
:106dfc0080c8b30000c0700005eeb7000080fa0038
:106e0c00000006000200fa00000f78001e00780057
:106e1c00ec0107001e00780010089000e00f5000f5
:106e2c00050032001e007800900890001e007800cb
:106e3c00010001001a0037001e00780020089000a5
:106e4c00e00f5000140032001e0078000008900083
:106e5c00e00f50000a0032001e007800a0089000dd
:106e6c001e007800010001001e0078000008900050
:106e7c008000e9001e007800010898000800370027
:106e8c001e007800f70107001e0078008000eb0060
:106e9c0021089800020037001e007800f10107005d
:106eac000080fa00000006003600f800809fbe004b
:106ebc00829fbe00849fbe00869fbe003200f800f9
:106ecc0000202000900188000000fa0080c1200002
:106edc00ccff07000080fa003200f9004f03be001f
:106eec004f02be004f01be004f00be003600f9003d
:106efc00004006003600f800809fbe00829fbe0056
:106f0c00849fbe00869fbe003200f8000020200047
:106f1c00900188000000fa00e0c22000b9ff0700d1
:106f2c000080fa003200f9004f03be004f02be0091
:106f3c004f01be004f00be003600f90000400600b5
:106f4c003600f800809fbe00829fbe00849fbe006a
:106f5c00869fbe003200f8000020200090018800bf
:106f6c000000fa0040c42000a6ff07000080fa00d1
:106f7c003200f9004f03be004f02be004f01be00ad
:106f8c004f00be003600f900004006003600f80045
:106f9c00809fbe00829fbe00849fbe00869fbe0065
:106fac003200f80000202000900188000000fa0058
:106fbc00a0c5200093ff07000080fa003200f90002
:106fcc004f03be004f02be004f01be004f00be007b
:106fdc003600f900004006003600f800809fbe0025
:106fec00829fbe00849fbe00869fbe003200f800c8
:106ffc0000202000900188000000fa0000c720004b
:10700c0080ff07000080fa003200f9004f03be0039
:10701c004f02be004f01be004f00be003600f9000b
:10702c00004006000000fa00b0002000801f78002d
:10703c004700200036c0b30045092000440820005a
:10704c0003102000221020004110200080c12000dd
:10705c00330007008f87e900c0002000801f7800f4
:10706c008003eb0076c0b3004509200044082000e3
:10707c0063102000c210200001112000e0c220008b
:10708c00270007008f87e900d0002000801f7800c0
:10709c001700200086c0b3004509200044082000da
:1070ac00a3102000e21020002111200040c4200079
:1070bc001b0007008f87e900e0002000801f78008c
:1070cc0027002000b6c0b30065092000640820002a
:1070dc0043112000a2112000e1112000a0c52000c6
:1070ec000f0007008f87e900f0002000801f780058
:1070fc0037002000c6c0b3006509200064082000da
:10710c0083112000c21120000112200000c72000b2
:10711c00030007008f87e9000080fa0000000600da
:10712c001000fa00000f7800110798002207980051
:10713c00330798004407980055079800464f98006d
:10714c00770798001e0078009e00900001087800d8
:10715c001e007800ae009000110098001e00780010
:10716c00be009000210098001e007800ce00900018
:10717c00310098001e007800de009000410098005d
:10718c001e007800ce489000214898001e00780020
:10719c00fe009000610098001e007800ceb89700a9
:1071ac00710098001e0078008000eb000108980028
:1071bc001e0078008000eb00110898001e0078007b
:1071cc008000eb00210898000080fa000000060007
:1071dc000600fa00881f7800000f7800120798004c
:1071ec002307980018c0b300d27b230063f8230058
:1071fc001e009000ae00900022ed0700e00f500042
:10720c0001003c000044eb00e04f540069003a00e0
:10721c0018c0b300d27b230063e823001e0090004b
:10722c00ae00900017ed0700e00f500001003c008d
:10723c000044eb00e04f5400120032001e007800b6
:10724c00c40007001e007800100078000103200025
:10725c00010878001e007800100490000240220003
:10726c00437724001e009000ae00900077ed0700dd
:10727c0006ed0700000078000000e900000c780023
:10728c004d00370018c0b300d27b230063d023001d
:10729c001e009000ae009000faec0700e00f5000ca
:1072ac0001003c000044eb00e04f5400120032009f
:1072bc001e007800a70007001e0078001000780060
:1072cc0001022000010878001e00780010049000d4
:1072dc0002402200438724001e009000ae00900064
:1072ec005aed0700e9ec0700000078000000e90007
:1072fc00000c78003000370018c0b300d27b23009c
:10730c0063b823001e009000ae009000ddec070077
:10731c00e00f500001003c000044eb00e04f540033
:10732c00120032001e0078008a0007001e00780050
:10733c001000780001012000010878001e00780080
:10734c001004900002402200439f24001e00900075
:10735c00ae0090003ded0700ccec0700000078007b
:10736c000000e900000c7800130037001e007800c4
:10737c00780007001e007800100078008000eb00f9
:10738c00010878001e0078001004900002402200d2
:10739c0043b724001e009000ae0090002bed0700b8
:1073ac00baec0700000078000000e900000c78003f
:1073bc0001003700000000004f0478000080fa0044
:1073cc00000006000400fa00889fbe001007980019
:1073dc001e00900010007800900078000003200040
:1073ec00008060004400de00000f78001e00780072
:1073fc00c200dd0060cb2000008040001004be0005
:10740c001e00900010009000100078000100200079
:10741c00b9ec07000200200003f82300f8eb07008a
:10742c000001be000800be0008ed07004f04be00be
:10743c000080fa00000006000600fa00000f780039
:10744c0012079800230798001e019000ae019000cf
:10745c000000200001f8230046ec07000001be00ec
:10746c001e0078005aff07000080fa00000006009a
:10747c000200fa00000f78001e007800d1ff070010
:10748c000001be000000200001f8230039ec0700c9
:10749c000080fa00000006000400fa00889fbe007d
:1074ac00100798001e0090001000780090007800e3
:1074bc0000032000008060004400de00000f780014
:1074cc001e007800c200dd0060cb20000080400070
:1074dc001004be001e0090001000900010007800f8
:1074ec000100200084ec07000200200003f82300b8
:1074fc00c3eb07000001be000800be00d3ec070080
:10750c004f04be000080fa00000006000200fa00e2
:10751c00000f78001e0078002a0007001e0078007b
:10752c00200090008000eb00010878001e0078001d
:10753c00100078009e00780091007800110178000e
:10754c000100280081007100010878000080fa0019
:10755c00000006000200fa00000f78001e00780000
:10756c00100078009e0078009100780011017800de
:10757c00f1ff270081006100010878000080fa000b
:10758c00000006000200fa00000f78001e007800d0
:10759c0030009000900078001e0078002048900089
:1075ac000080fb00120020000010dd0080806000d5
:1075bc000100ea00010070004f00de000080fa00bc
:1075cc00000006000200fa00000f78001e00780090
:1075dc00b00090001e007800300090001001780080
:1075ec001e007800204890000080fb001300200053
:1075fc000018dd000080ea000000610080087800bf
:10760c000080fa00000006000200fa00000f78006b
:10761c001e00780020009000100078000080fa0016
:10762c00000006000200fa00000f78001e0078002f
:10763c00c00090001e0078004000900010017800ff
:10764c001e007800204890000080fb0013002000f2
:10765c000018dd0000007100800878000080fa003e
:10766c00000006000200fa00000f78001e007800ef
:10767c00c00090001e0078004000900010017800bf
:10768c001e007800204890000080fb0013002000b2
:10769c000018dd000080ea0000006100800878001e
:1076ac000080fa00000006000800fa00000f7800c5
:1076bc001207980023079800310798001e007800e5
:1076cc00e8ff07001e019000ae0190001e0078003c
:1076dc00bffe07001e0078008000eb000108980038
:1076ec001e007800be009000110898001e00780063
:1076fc008000eb00210898001e007800c9ff0700ed
:10770c001e00780081ff07000080fa0000000600d0
:10771c000a00fa00000f780012079800230798005f
:10772c0031079800440798001e007800cdff070031
:10773c001e019000ae0190001e007800a4fe070010
:10774c001e007800be009000010898001e00780012
:10775c008000eb00110898001e007800ce0090000d
:10776c00210898001e007800aeff07001e0078006c
:10777c0066ff07000080fa00000006000200fa0015
:10778c00000f78001e007800b6ff07001e0078007e
:10779c008cff07001e0078006eff07001e007800ab
:1077ac008000eb00010898001e0078008000eb00c0
:1077bc00110898001e0078008000eb00210898004a
:1077cc000080fa00000006000400fa00000f7800a8
:1077dc00110798001e009000e00f50000d003200c1
:1077ec001e007800900078001e00780010007800d1
:1077fc00100178001e007800604090000080fb00b3
:10780c00130020000018dd000000710080087800d3
:10781c000d0037001e007800900078001e007800e4
:10782c0010007800100178001e0078006040900075
:10783c000080fb00130020000018dd000080ea002f
:10784c0000006100800878000080fa00000006004b
:10785c000200fa00000f78001e007800100078007b
:10786c00900078001e007800604090000080fb00c3
